{
  "contractName": "Token",
  "abi": [
    {
      "constant": true,
      "inputs": [],
      "name": "decimals",
      "outputs": [
        {
          "internalType": "uint256",
          "name": "",
          "type": "uint256"
        }
      ],
      "payable": false,
      "stateMutability": "view",
      "type": "function"
    },
    {
      "constant": true,
      "inputs": [],
      "name": "name",
      "outputs": [
        {
          "internalType": "string",
          "name": "",
          "type": "string"
        }
      ],
      "payable": false,
      "stateMutability": "view",
      "type": "function"
    },
    {
      "constant": true,
      "inputs": [],
      "name": "symbol",
      "outputs": [
        {
          "internalType": "string",
          "name": "",
          "type": "string"
        }
      ],
      "payable": false,
      "stateMutability": "view",
      "type": "function"
    },
    {
      "constant": true,
      "inputs": [],
      "name": "totalSupply",
      "outputs": [
        {
          "internalType": "uint256",
          "name": "",
          "type": "uint256"
        }
      ],
      "payable": false,
      "stateMutability": "view",
      "type": "function"
    }
  ],
  "bytecode": "0x60806040526040518060400160405280600681526020017f5368696e6f7300000000000000000000000000000000000000000000000000008152506000908051906020019061004f9291906100b3565b506040518060400160405280600481526020017f5348494e000000000000000000000000000000000000000000000000000000008152506001908051906020019061009b9291906100b3565b5060126002553480156100ad57600080fd5b50610158565b828054600181600116156101000203166002900490600052602060002090601f016020900481019282601f106100f457805160ff1916838001178555610122565b82800160010185558215610122579182015b82811115610121578251825591602001919060010190610106565b5b50905061012f9190610133565b5090565b61015591905b80821115610151576000816000905550600101610139565b5090565b90565b610310806101676000396000f3fe608060405234801561001057600080fd5b506004361061004c5760003560e01c806306fdde031461005157806318160ddd146100d4578063313ce567146100f257806395d89b4114610110575b600080fd5b610059610193565b6040518080602001828103825283818151815260200191508051906020019080838360005b8381101561009957808201518184015260208101905061007e565b50505050905090810190601f1680156100c65780820380516001836020036101000a031916815260200191505b509250505060405180910390f35b6100dc610231565b6040518082815260200191505060405180910390f35b6100fa610237565b6040518082815260200191505060405180910390f35b61011861023d565b6040518080602001828103825283818151815260200191508051906020019080838360005b8381101561015857808201518184015260208101905061013d565b50505050905090810190601f1680156101855780820380516001836020036101000a031916815260200191505b509250505060405180910390f35b60008054600181600116156101000203166002900480601f0160208091040260200160405190810160405280929190818152602001828054600181600116156101000203166002900480156102295780601f106101fe57610100808354040283529160200191610229565b820191906000526020600020905b81548152906001019060200180831161020c57829003601f168201915b505050505081565b60035481565b60025481565b60018054600181600116156101000203166002900480601f0160208091040260200160405190810160405280929190818152602001828054600181600116156101000203166002900480156102d35780601f106102a8576101008083540402835291602001916102d3565b820191906000526020600020905b8154815290600101906020018083116102b657829003601f168201915b50505050508156fea265627a7a7231582006ebffd59b7242986bb80a6e4fb6cfa1c210fe221052b7ea6d9f26cbf90633a464736f6c63430005100032",
  "source": "pragma solidity ^0.5.0;\n\ncontract Token {\n    string public name = \"Shinos\";\n    string public symbol = \"SHIN\";\n    uint256 public decimals = 18;\n    uint256 public totalSupply;\n}",
  "sourcePath": "/home/guru/projets/dapp-university/blockchain-developer-bootcamp/src/contracts/Token.sol",
  "compiler": {
    "name": "solc",
    "version": "0.5.16+commit.9c3226ce.Emscripten.clang"
  },
  "schemaVersion": "3.2.3",
  "updatedAt": "2022-01-13T04:18:34.842Z",
  "devdoc": {
    "methods": {}
  },
  "userdoc": {
    "methods": {}
  }
}